:1000000071C00000D4C20000E6C200002CC3000092
:1000100042C3000054C300006EC3000082C0000051
:1000200080C000007EC000007CC000007AC00000DC
:1000300078C0000076C0000074C0000072C00000EC
:1000400070C000006EC000006CC000006AC00000FC
:1000500068C0000066C0000064C0000062C000000C
:1000600060C000005EC000005CC000005AC000001C
:1000700058C0000054C3000054C0000052C000002B
:1000800050C000004EC000004CC000004AC000003C
:1000900048C0000046C0000044C0000042C000004C
:1000A00040C000003EC000003CC000003AC000005C
:1000B00038C0000036C0000034C0000032C000006C
:1000C00030C000002EC000002CC000002AC000007C
:1000D00028C0000026C0000024C0000022C000008C
:1000E00020C0000011241FBECFEFD1E2DEBFCDBF84
:1000F00000E00CBF12E0A0E0B2E0ECEFF7E000E0BF
:100100000BBF02C007900D92A03CB107D9F722E0C7
:10011000A0ECB2E001C01D92A13DB207E1F70FD102
:100120006BC32EC387B1807F87B9459A469800C0BC
:1001300000C0479A00C000C086B18295807F00C091
:1001400000C0479892E09A95F1F700C0479A00C026
:1001500000C096B100C000C0479892E09A95F1F7B0
:1001600000C0882334F3459887B18F6087B908951C
:10017000282F22952F708F70611102C0469801C000
:10018000469A00C000C0479A98B1907F922B98B9C8
:1001900092E09A95F1F700C0479892E09A95F1F7AE
:1001A00000C0479A98B1907F892B88B982E08A95E0
:1001B000F1F700C0479892E09A95F1F700C0B2CFEE
:1001C0000895CF93C82F8FE59AEE0197F1F700C0FD
:1001D000000087B18F6087B93F9A3E9A3D9A88B1F7
:1001E000807F88B947984598469800C00000479A94
:1001F000419A92E09A95F1F700C0479882E08A957B
:10020000F1F700C08FDF60E08C2F8C60B1DF60E021
:1002100088E2AEDFCF910895CF93DF93EC01888120
:10022000882331F0219661E0A3DF89918111FBCF12
:10023000DF91CF910895EF92FF920F931F93CF9389
:10024000DF9300D01F921F92CDB7DEB77B01FE0176
:10025000319625E0DF011D922A95E9F7009751F0CC
:1002600035962AE030E0B901A0D28293862F972FED
:100270000097C9F7BFEFEB16FB0669F4898181117E
:100280001DC0FE01329600E010E00F5F1F4F81910C
:100290008823D9F30FC005E010E00E191F090AC02A
:1002A000F80181918F0161E0805D62DF0E151F050D
:1002B000B9F711C0053011051CF00DC000E010E0C9
:1002C00081E090E08C0F9D1F080F191F7E0196E0C2
:1002D000E90EF11CE5CF0F900F900F900F900F904B
:1002E000DF91CF911F910F91FF90EF900895883289
:1002F00028F46111806460E080683ACF0895AC0111
:10030000E1E8F0E090819860908388EE93E090932C
:100310008900809388001092850010928400B19A21
:1003200020E030E005C0B19BFECFB19A2F5F3F4F78
:10033000241735071CF4B19BF6CFF7CF08956F92C1
:100340007F928F929F92AF92BF92CF92DF92EF9265
:10035000FF920F931F93CF93DF93CDB7DEB76497D0
:100360000FB6F894DEBF0FBECDBFE1E6F0E010E8B7
:10037000108381E0808383E024DF60E081E0F8DEA9
:100380001092CE021092CD021092CC021092CB02AB
:1003900014B980EF80930A01EBE0F1E0808180677F
:1003A00080838FEF81B987B98093070180EC80BB90
:1003B000E1E9F0E0808188608083808183608083D0
:1003C000E1E8F0E080818260808388E39AE49093A2
:1003D0009900809398001092950010929400EAE79B
:1003E000F0E080818068808380818860808384B52C
:1003F000836084BD80E687BD84B5806884BD85B593
:10040000826085BDF894A9E6B0E08C9189608C93F8
:100410008DB383608DBBAAE6B0E08C918C608C9329
:10042000ED9A78948081806480838091C402909159
:10043000C502892BD1F31092C5021092C402612C1F
:10044000712C6E0185E1C80ED11C0AE710E060E056
:1004500081E08EDEA1E06A167104A9F024F4611433
:10046000710451F025C082E06816710499F0A3E090
:100470006A167104B1F01CC060E080E038DF82E8E9
:1004800092E0CADE7AC060E080E031DF82E092E094
:10049000C3DE73C060E080E02ADF8CE092E0BCDE67
:1004A0006CC060E080E023DF8AE192E0B5DE65C0E9
:1004B00060E080E01CDF88E292E0AEDE5EC080910A
:1004C000C2029091C302892BD1F31092C302109201
:1004D000C202C19A19C0D8018C9180648C9380911A
:1004E000C4029091C502892BD1F31092C5021092DB
:1004F000C4028091C9029091CA028E159F0520F412
:10050000E090C902F090CA02C19BE5CFE192F1925E
:10051000CE16DF06A1F6A980BA80FE01339645010A
:10052000819191918A159B0508F45C0188169906C2
:1005300008F44C01EC15FD0599F761E080E0D7DE89
:1005400064E070E0C50177DE61E085E0D0DE8EE238
:1005500092E062DE61E088E0CADE64E070E0C4013F
:100560006ADE88E893E1CBDEBFEF6B1A7B0A84E09A
:100570006816710409F06BCF03C0FE0131969FCF5E
:1005800080E090E064960FB6F894DEBF0FBECDBF5A
:10059000DF91CF911F910F91FF90EF90DF90CF905F
:1005A000BF90AF909F908F907F906F9008951F9213
:1005B0000F920FB60F921124EBE0F1E08081806F73
:1005C000808360E081E0D4DD60E080E090DE89E956
:1005D00092E022DEFFCF1F920F920FB60F921124EE
:1005E0000BB60F922F933F934F935F936F937F932D
:1005F0008F939F93AF93BF93EF93FF93EBE0F1E063
:100600008081806F808389E190E079DE80910002B3
:1006100090910102892B49F0EBE0F1E08081808329
:1006200010920102109200020BC0EBE0F1E0808119
:100630008F77808381E090E09093010280930002A5
:10064000FF91EF91BF91AF919F918F917F916F91AA
:100650005F914F913F912F910F900BBE0F900FBE66
:100660000F901F9018951F920F920FB60F921124A2
:100670008F939F9382E68093C80281E090E09093ED
:10068000C7028093C602EA989F918F910F900FBE88
:100690000F901F9018951F920F920FB60F92112472
:1006A0008F939F9381E090E09093C1028093C0026A
:1006B0009F918F910F900FBE0F901F9018951F92D2
:1006C0000F920FB60F9211240BB60F928F93EF93E8
:1006D000FF93EBE0F1E080818FEF808380818F7763
:1006E0008083FF91EF918F910F900BBE0F900FBE03
:1006F0000F901F9018951F920F920FB60F92112412
:100700008F939F9381E090E09093C3028093C20205
:100710009F918F910F900FBE0F901F9018951F9271
:100720000F920FB60F9211242F938F939F931092D5
:10073000CA021092C902209178008091C90290915A
:10074000CA02822B9093CA028093C9022091790039
:100750008091C9029091CA022370922B9093CA0291
:100760008093C90281E090E09093C5028093C40217
:100770009F918F912F910F900FBE0F901F90189502
:100780001F920F920FB60F92112460E081E0F0DC0F
:1007900060E081E0ACDD89EA92E03EDD61E086E088
:1007A000A6DD88EB92E038DDFFCF97FB072E16F42D
:1007B000009406D077FD08D00BD007FC05D03EF49E
:1007C000909581959F4F0895709561957F4F0895FD
:1007D000AA1BBB1B51E107C0AA1FBB1FA617B70767
:1007E00010F0A61BB70B881F991F5A95A9F7809583
:0C07F0009095BC01CD010895F894FFCF56
:1007FC000100416C756D696E69756D00426C6163C9
:10080C006B20506C61737469630057686974652060
:10081C00506C6173746963004572726F7200746F0F
:10082C0000533A002C20413A002C20503A004974D5
:10083C00656D7320536F727465643A20004469735C
:10084C006B20686F6D656420426C61636B0044695A
:10085C00736B206F6E20426C61636B004469736B29
:10086C00206F6E205768697465004469736B206F44
:10087C006E20537465656C004469736B206F6E2039
:10088C00416C756D696E756D004B696C6C2053779E
:10089C00697463682048697400536F6D6574686986
:1008AC006E672077656E740077726F6E672100003B
:00000001FF
