:1000000071C0000077C4000089C40000BAC40000B9
:1000100088C0000086C0000084C0000082C00000CC
:1000200080C000007EC000007CC000007AC00000DC
:1000300078C0000076C0000074C0000072C00000EC
:1000400070C000006EC000006CC000006AC00000FC
:1000500068C0000066C0000064C0000062C000000C
:1000600060C000005EC000005CC000005AC000001C
:1000700058C00000A0C4000054C0000052C00000DE
:1000800050C000004EC000004CC000004AC000003C
:1000900048C0000046C0000044C0000042C000004C
:1000A00040C000003EC000003CC000003AC000005C
:1000B00038C0000036C0000034C0000032C000006C
:1000C00030C000002EC000002CC000002AC000007C
:1000D00028C0000026C0000024C0000022C000008C
:1000E00020C0000011241FBECFEFD1E2DEBFCDBF84
:1000F00000E00CBF13E0A0E0B2E0E2E6FAE000E0CE
:100100000BBF02C007900D92AC3DB107D9F723E0B9
:10011000ACEDB3E001C01D92A03FB207E1F721D3DF
:100120009EC461C487B1807F87B9459A469800C054
:1001300000C0479A00C000C086B18295807F00C091
:1001400000C0479892E09A95F1F700C0479A00C026
:1001500000C096B100C000C0479892E09A95F1F7B0
:1001600000C0882334F3459887B18F6087B908951C
:10017000282F22952F708F70611102C0469801C000
:10018000469A00C000C0479A98B1907F922B98B9C8
:1001900092E09A95F1F700C0479892E09A95F1F7AE
:1001A00000C0479A98B1907F892B88B982E08A95E0
:1001B000F1F700C0479892E09A95F1F700C0B2CFEE
:1001C0000895CF93C82F8FE59AEE0197F1F700C0FD
:1001D000000087B18F6087B93F9A3E9A3D9A88B1F7
:1001E000807F88B947984598469800C00000479A94
:1001F000419A92E09A95F1F700C0479882E08A957B
:10020000F1F700C08FDF60E08C2F8C60B1DF60E021
:1002100088E2AEDFCF910895CF93DF93EC01888120
:10022000882331F0219661E0A3DF89918111FBCF12
:10023000DF91CF910895EF92FF920F931F93CF9389
:10024000DF9300D01F921F92CDB7DEB77B01FE0176
:10025000319625E0DF011D922A95E9F7009751F0CC
:1002600035962AE030E0B901D3D38293862F972FB9
:100270000097C9F7BFEFEB16FB0669F4898181117E
:100280001DC0FE01329600E010E00F5F1F4F81910C
:100290008823D9F30FC005E010E00E191F090AC02A
:1002A000F80181918F0161E0805D62DF0E151F050D
:1002B000B9F711C0053011051CF00DC000E010E0C9
:1002C00081E090E08C0F9D1F080F191F7E0196E0C2
:1002D000E90EF11CE5CF0F900F900F900F900F904B
:1002E000DF91CF911F910F91FF90EF900895883289
:1002F00028F46111806460E080683ACF0895AC0111
:10030000E1E8F0E090819860908388EE93E090932C
:100310008900809388001092850010928400B19A21
:1003200020E030E005C0B19BFECFB19A2F5F3F4F78
:10033000241735071CF4B19BF6CFF7CF08951CC0E6
:10034000E091E703F091E803EE0FFF1FE45DFC4F3F
:10035000808182B984E190E0D2DF8091E7039091BF
:10036000E80301969093E8038093E703049721F450
:100370001092E8031092E7038091E9039091EA0359
:100380000197F1F660E080E0B2DF8FE393E044DFB5
:1003900088EE93E0B4CF0895AF92BF92CF92DF92F0
:1003A000EF92FF920F931F93CF93DF937C01809185
:1003B000E5039091E603892BB1F13FC008EC12E010
:1003C0000F2EF0E0CF2EF2E0DF2EF02DE701E091CE
:1003D000E703F091E803EE0FFF1FE45DFC4F80811F
:1003E00082B98AE5E816F10429F4F8018081918147
:1003F00086DF04C0F6018081918181DF8091E7036F
:100400009091E803019621978430910529F090930B
:10041000E8038093E70304C01092E8031092E70317
:10042000209729F454C01E141F0444F250C00E5FDC
:100430001F4FF2E0CF0ED11CCACF8091E5039091FF
:10044000E603019709F043C030C0E091E703F09163
:10045000E803EE0FFF1FE45DFC4F808182B98AE55F
:10046000E816F10429F4F8018081918148DF04C085
:10047000F5018081918143DF8091E7039091E8034A
:100480000197219799232CF09093E8038093E70339
:1004900004C0D092E803C092E7030E5F1F4FF2E062
:1004A000AF0EB11C209789F612C01E141F047CF4F5
:1004B00008EC12E00F2EF0E0AF2EF2E0BF2EF02D90
:1004C000E7010F2EF3E0CF2ED12CF02DBECFDF9120
:1004D000CF911F910F91FF90EF90DF90CF90BF9041
:1004E000AF9008959091EB03923659F018F491363D
:1004F000B1F1BEC0933709F48EC0973709F45DC0DF
:10050000B7C0823609F4B7C018F4813631F024C080
:10051000833771F08737C9F01FC01092E60310923D
:10052000E50382E390E038DF81E68093EB03A3C02C
:1005300081E090E09093E6038093E50382E390E00E
:100540002BDF83E78093EB0396C084E690E024DF03
:1005500087E78093EB038FC081E090E080D2823602
:1005600051F020F4813609F486C024C0833781F02D
:100570008737A9F01FC081E090E09093E603809355
:10058000E50382E390E008DF82E68093EB0373C02B
:1005900084E690E001DF83E78093EB036CC0109268
:1005A000E6031092E50382E390E0F6DE87E78093AE
:1005B000EB0361C081E090E052D2823651F018F432
:1005C000813671F025C08337C1F0873709F453C0F5
:1005D0001FC084E690E0E0DE82E68093EB034BC030
:1005E00081E090E09093E6038093E50382E390E05E
:1005F000D3DE81E68093EB033EC01092E6031092B7
:10060000E50382E390E0C8DE83E78093EB0333C029
:1006100081E090E024D2823649F018F4813689F0E6
:1006200024C0833741F1873799F01FC01092E60349
:100630001092E50382E390E0AFDE82E68093EB0365
:100640001AC084E690E0A8DE81E68093EB0313C035
:1006500081E090E09093E6038093E50382E390E0ED
:100660009BDE87E78093EB0306C081E090E0F7D143
:1006700081E090E0F4D18091E3039091E40301964E
:100680009093E4038093E30308958091EB03823613
:10069000B9F460E080E02BDE80E593E0BDDD61E051
:1006A00080E025DE8EE593E0B7DD61E08EE01FDEC1
:1006B00062E070E08091E3039091E403BCCD089583
:1006C0008091EB038737B9F460E080E010DE8DE6BF
:1006D00093E0A2DD61E080E00ADE8EE593E09CDD40
:1006E00061E08EE004DE62E070E08091E3039091CF
:1006F000E403A1CD08958091EB038337B9F460E062
:1007000080E0F5DD8BE793E087DD61E080E0EFDD01
:100710008EE593E081DD61E08EE0E9DD62E070E08E
:100720008091E3039091E40386CD08958091EB03DB
:100730008136B1F460E080E0DADD89E893E06CDDD9
:1007400061E080E0D4DD8EE593E066DD61E08EE07F
:10075000CEDD62E070E08091E3039091E4036BCD25
:100760000895CF93DF93CDB7DEB72B970FB6F894EC
:10077000DEBF0FBECDBFE1E6F0E010E8108381E000
:10078000808383E01EDD60E081E0F2DCF89410926B
:10079000EC0314B980EF80930A018FEF81B987B918
:1007A0008093070180EC80BBE1E8F0E0808182600B
:1007B00080838DB387608DBB86EA80936900EAE70A
:1007C000F0E0808180688083808188608083808180
:1007D0008062808384B5836084BD8FE387BD84B5E8
:1007E000806884BD85B5826085BD78948081806491
:1007F00080838BE0E4E3F3E0DE01119601900D923B
:100800008A95E1F760E080E072DD8AE993E004DD3B
:1008100096DD7E018CE0E80EF11C8E010F5F1F4F0C
:10082000F80181918F015EDE60E081E0A1DC2DDFC7
:1008300088EE93E064DD0E151F0591F71092E40336
:100840001092E303EACF8091DC03823009F04BC0C1
:1008500060E081E08DDC60E080E049DD89EA93E0E2
:10086000DBDC60E082E043DD8091DF039091E00318
:1008700062E070E0E0DC60E084E039DD8CEA93E087
:10088000CBDC60E088E033DD8091DD039091DE0316
:1008900062E070E0D0DC60E08AE029DD81EB93E08B
:1008A000BBDC60E08EE023DD8091E1039091E20308
:1008B00062E070E0C0DC61E080E019DD8EE593E08D
:1008C000ABDC61E08DE013DD62E070E08091E3037A
:1008D0009091E403B0DC04C08091DC03882349F0EC
:1008E000499BFACF08958091DC03843011F4109273
:1008F000DC0308951F920F920FB60F921124EBE0C4
:10090000F1E08081806F808360E081E031DC60E035
:1009100080E0EDDC86EB93E07FDCFFCF1F920F924F
:100920000FB60F9211240BB60F922F933F934F9354
:100930005F936F937F938F939F93AF93BF93EF9347
:10094000FF93499B05C084E190E0D9DC4999FBCF36
:100950008091DC038F5F8093DC0375DFFF91EF9163
:10096000BF91AF919F918F917F916F915F914F91C7
:100970003F912F910F900BBE0F900FBE0F901F90C5
:1009800018951F920F920FB60F9211248F939F9379
:1009900082E68093EB0381E090E09093EA038093FA
:1009A000E9038DB38B608DBB9F918F910F900FBE2C
:1009B0000F901F9018951F920F920FB60F9211244F
:1009C0008F93809178008093EF03809179008370FA
:1009D0008093ED0381E08093EE038F910F900FBE23
:1009E0000F901F9018951F920F920FB60F9211241F
:1009F00060E081E0BDDB60E081E079DC86EC93E0E3
:100A00000BDC61E086E073DC85ED93E005DCFFCF75
:100A100097FB072E16F4009406D077FD08D00BD074
:100A200007FC05D03EF4909581959F4F08957095F1
:100A300061957F4F0895AA1BBB1B51E107C0AA1FF8
:100A4000BB1FA617B70710F0A61BB70B881F991F6F
:100A50005A95A9F780959095BC01CD010895F89419
:020A6000FFCFC6
:100A620014001300130013001300120012001200EE
:100A720012001100110011001100100010001000EE
:100A820010000F000F000F000F000E000E000E00EE
:100A92000E000D000D000D000D000C000C000C00EE
:100AA2000C000B000B000B000B000A000A000A00EE
:100AB2000A000900090009000900080008000800EE
:100AC20008000700080008000800080009000900E3
:100AD200090009000A000A000A000A000B000B00C4
:100AE2000B000B000C000C000C000C000D000D00A4
:100AF2000D000D000E000E000E000E000F000F0084
:100B02000F000F0010001000100010001100110063
:100B12001100110012001200120012001300130043
:100B2200130013001400000014001300130012003D
:100B3200120011001100100010000F000F000E0033
:100B42000E000D000D000C000C000B000B000A0043
:100B52000A0009000900080008000700080009004F
:100B620009000A000A000B000B000C000C000D002B
:100B72000D000E000E000F000F00100010001100FB
:100B820011001200120013001300140023001C00B5
:100B920015002A006162737777617362777362442A
:100BA20069736B20686F6D656420426C61636B00D2
:100BB2004469736B206F6E20426C61636B004974F1
:100BC200656D7320536F727465643A2000446973D3
:100BD2006B206F6E205768697465004469736B20DF
:100BE2006F6E20537465656C004469736B206F6E81
:100BF20020416C756D696E756D004469736B206977
:100C02007320686F6D696E6700533A002C20413A79
:100C1200002C20503A004B696C6C20537769746346
:100C2200682048697400536F6D657468696E672047
:0C0C320077656E740077726F6E672100AA
:00000001FF
