:1000000071C000008EC000008BC100008AC00000DB
:1000100088C0000086C0000084C0000082C00000CC
:1000200080C000007EC000007CC000007AC00000DC
:1000300078C0000076C0000074C0000072C00000EC
:1000400070C000006EC000006CC000006AC00000FC
:1000500068C0000066C0000064C0000062C000000C
:1000600060C000005EC000005CC000005AC000001C
:1000700058C0000092C1000054C0000052C00000EF
:1000800050C000004EC000004CC000004AC000003C
:1000900048C0000046C0000044C0000042C000004C
:1000A00040C000003EC000003CC000003AC000005C
:1000B00038C0000036C0000034C0000032C000006C
:1000C00030C000002EC000002CC000002AC000007C
:1000D00028C0000026C0000024C0000022C000008C
:1000E00020C0000011241FBECFEFD1E2DEBFCDBF84
:1000F00000E00CBF12E0A0E0B2E0EEECF3E000E0C4
:100100000BBF02C007900D92A030B107D9F722E0D3
:10011000A0E0B2E001C01D92A730B207E1F77CD0A9
:1001200054C16ECF87B1807F87B9459A469800C089
:1001300000C0479A00C000C086B18295807F00C091
:1001400000C0479892E09A95F1F700C0479A00C026
:1001500000C096B100C000C0479892E09A95F1F7B0
:1001600000C0882334F3459887B18F6087B908951C
:10017000282F22952F708F70611102C0469801C000
:10018000469A00C000C0479A98B1907F922B98B9C8
:1001900092E09A95F1F700C0479892E09A95F1F7AE
:1001A00000C0479A98B1907F892B88B982E08A95E0
:1001B000F1F700C0479892E09A95F1F700C0B2CFEE
:1001C0000895CF93C82F8FE59AEE0197F1F700C0FD
:1001D000000087B18F6087B93F9A3E9A3D9A88B1F7
:1001E000807F88B947984598469800C00000479A94
:1001F000419A92E09A95F1F700C0479882E08A957B
:10020000F1F700C08FDF60E08C2F8C60B1DF60E021
:1002100088E2AEDFCF910895E1E6F0E0C0E8C08368
:1002200081E0808383E0CDDF60E081E0A1DFF894AE
:1002300010920302C4B980EF80930A01EBE0F1E071
:100240008081806F80838FEF81B987B980930701A8
:1002500080EC80BBE1E8F0E08081826080838DB338
:1002600087608DBB8AE280936900EAE7F0E08081D5
:1002700080688083808188608083808180628083C1
:1002800084B5836084BD8FE387BD84B5806884BDF9
:1002900085B5826085BD7894808180648083E8E044
:1002A000F1E0809105028823B1F090910402209141
:1002B000060230E4939FC0011124922F96959695E3
:1002C000892B8083809106028295880F880F807C1D
:1002D00081BB109205021092010210920002E1CF40
:1002E000AC01E1E8F0E090819860908388EE93E0C3
:1002F000909389008093880010928500109284006A
:10030000B19A20E030E005C0B19BFECFB19A2F5FDB
:100310003F4F241735071CF4B19BF6CFF7CF089554
:100320001F920F920FB60F9211240BB60F922F93BC
:100330003F934F935F936F937F938F939F93AF936D
:10034000BF93EF93FF93EBE0F1E08081806F8083B8
:1003500084E190E0C5DF80910302882319F01092B8
:10036000030208C0EBE0F1E080818F77808381E0B9
:1003700080930302FF91EF91BF91AF919F918F9175
:100380007F916F915F914F913F912F910F900BBE95
:100390000F900FBE0F901F9018951F920F920FB6DF
:1003A0000F9211248F9380917800809306028091A0
:1003B000790083708093040281E0809305028F911D
:0E03C0000F900FBE0F901F901895F894FFCF6E
:00000001FF
