:1000000071C0000013C2000025C200005FC20000E2
:1000100088C0000086C0000084C0000082C00000CC
:1000200080C000007EC000007CC000007AC00000DC
:1000300078C0000076C0000074C0000072C00000EC
:1000400070C000006EC000006CC000006AC00000FC
:1000500068C0000066C0000064C0000062C000000C
:1000600060C000005EC000005CC000005AC000001C
:1000700058C0000045C2000054C0000052C000003B
:1000800050C000004EC000004CC000004AC000003C
:1000900048C0000046C0000044C0000042C000004C
:1000A00040C000003EC000003CC000003AC000005C
:1000B00038C0000036C0000034C0000032C000006C
:1000C00030C000002EC000002CC000002AC000007C
:1000D00028C0000026C0000024C0000022C000008C
:1000E00020C0000011241FBECFEFD1E2DEBFCDBF84
:1000F00000E00CBF12E0A0E0B2E0ECEAF5E000E0C6
:100100000BBF02C007900D92A238B107D9F722E0C9
:10011000A2E8B2E001C01D92AC38B207E1F7EFD01F
:1001200043C206C287B1807F87B9459A469800C00E
:1001300000C0479A00C000C086B18295807F00C091
:1001400000C0479892E09A95F1F700C0479A00C026
:1001500000C096B100C000C0479892E09A95F1F7B0
:1001600000C0882334F3459887B18F6087B908951C
:10017000282F22952F708F70611102C0469801C000
:10018000469A00C000C0479A98B1907F922B98B9C8
:1001900092E09A95F1F700C0479892E09A95F1F7AE
:1001A00000C0479A98B1907F892B88B982E08A95E0
:1001B000F1F700C0479892E09A95F1F700C0B2CFEE
:1001C0000895CF93C82F8FE59AEE0197F1F700C0FD
:1001D000000087B18F6087B93F9A3E9A3D9A88B1F7
:1001E000807F88B947984598469800C00000479A94
:1001F000419A92E09A95F1F700C0479882E08A957B
:10020000F1F700C08FDF60E08C2F8C60B1DF60E021
:1002100088E2AEDFCF910895CF93DF93EC01888120
:10022000882331F0219661E0A3DF89918111FBCF12
:10023000DF91CF910895EF92FF920F931F93CF9389
:10024000DF9300D01F921F92CDB7DEB77B01FE0176
:10025000319625E0DF011D922A95E9F7009751F0CC
:1002600035962AE030E0B90178D18293862F972F16
:100270000097C9F7BFEFEB16FB0669F4898181117E
:100280001DC0FE01329600E010E00F5F1F4F81910C
:100290008823D9F30FC005E010E00E191F090AC02A
:1002A000F80181918F0161E0805D62DF0E151F050D
:1002B000B9F711C0053011051CF00DC000E010E0C9
:1002C00081E090E08C0F9D1F080F191F7E0196E0C2
:1002D000E90EF11CE5CF0F900F900F900F900F904B
:1002E000DF91CF911F910F91FF90EF900895883289
:1002F00028F46111806460E080683ACF0895E1E6F7
:10030000F0E0C0E8C08381E0808383E05ADF60E0F2
:1003100081E02EDFF89410928802C4B980EF8093B8
:100320000A01EBE0F1E08081806F80838FEF81B97B
:1003300087B98093070180EC80BBE1E8F0E0808121
:10034000826080838DB38F608DBB86EA8093690065
:10035000EAE7F0E080818068808380818860808324
:1003600080818062808384B5836084BD8FE387BD94
:1003700084B5806884BD85B5826085BD78948081B0
:1003800080648083E8E0F1E080918A028823B1F004
:100390009091890220918B0230E4939FC001112437
:1003A000922F96959695892B808380918B028295CA
:1003B000880F880F807C81BB10928A021092840281
:1003C00010928302E1CFAC01E1E8F0E09081986007
:1003D000908388EE93E09093890080938800109238
:1003E000850010928400B19A20E030E005C0B19BF6
:1003F000FECFB19A2F5F3F4F241735071CF4B19BF6
:10040000F6CFF7CF089580918202823041F404C084
:1004100080918202882349F0499BFACF0895809108
:100420008202843011F41092820208951F920F927A
:100430000FB60F921124EBE0F1E08081806F808392
:1004400060E081E095DE60E080E051DF8BE592E0E6
:10045000E3DEFFCF1F920F920FB60F9211240BB65F
:100460000F922F933F934F935F936F937F938F934D
:100470009F93AF93BF93EF93FF93499B05C084E194
:1004800090E0A1DF4999FBCF809182028F5F80933A
:100490008202B9DF60E080E02ADF8091820262E0C0
:1004A00070E090E0C8DEFF91EF91BF91AF919F9116
:1004B0008F917F916F915F914F913F912F910F900D
:1004C0000BBE0F900FBE0F901F9018951F920F92AA
:1004D0000FB60F9211248F939F9382E68093870229
:1004E00081E090E090938602809385028DB38B60CB
:1004F0008DBB9F918F910F900FBE0F901F901895FD
:100500001F920F920FB60F9211248F938091780053
:1005100080938B028091790083708093890281E0BF
:1005200080938A028F910F900FBE0F901F901895A5
:100530001F920F920FB60F92112460E081E018DE37
:1005400060E081E0D4DE8BE692E066DE61E086E08A
:10055000CEDE8AE792E060DEFFCF97FB072E16F42F
:10056000009406D077FD08D00BD007FC05D03EF4F0
:10057000909581959F4F0895709561957F4F08954F
:10058000AA1BBB1B51E107C0AA1FBB1FA617B707B9
:1005900010F0A61BB70B881F991F5A95A9F78095D5
:0C05A0009095BC01CD010895F894FFCFA8
:1005AC004469736B20686F6D656420426C61636B8A
:1005BC00004469736B206F6E20426C61636B004961
:1005CC0074656D7320536F727465643A20004469CE
:1005DC00736B206F6E205768697465004469736B88
:1005EC00206F6E20537465656C004469736B206FCB
:1005FC006E20416C756D696E756D004B696C6C206D
:10060C005377697463682048697400536F6D65741F
:10061C0068696E672077656E740077726F6E6721FC
:02062C000000CC
:00000001FF
